S0130000494E5445525255505420322E73726563F2
S11300000C942A000C9447000C9447000C9447006D
S11300100C9447000C9447000C9447000C94470040
S11300200C9447000C949C000C9447000C944700DB
S11300300C9447000C9447000C9447000C94470020
S11300400C9447000C9447000C9447000C94470010
S11300500C94470011241FBECFE5D4E0DEBFCDBF12
S113006010E0A0E6B0E0E4E1F2E002C005900D92F9
S1130070A038B107D9F720E0A0E8B0E001C01D9294
S1130080A238B207E1F70E94E2000C9408010C9434
S1130090000085BBA898A998AA9A83EC99E00197D7
S11300A0F1F700C00000AA980895CF93C82F807F6D
S11300B090E00E94490020E1C29FC00111249927C9
S11300C00E944900CF91089582E090E00E9455007B
S11300D088E290E00E94550086E090E00E9455007E
S11300E08CE090E00E945500089585BBA89AA998D9
S11300F0AA9A83EC99E00197F1F700C00000AA984E
S11301000895CF93C82F807F0E9475008C2F82950D
S1130110807F0E947500CF910895CF93DF93EC0107
S11301208881882331F021960E9481008991811170
S1130130FBCFDF91CF9108951F920F920FB60F92CC
S113014011242F933F934F935F936F937F938F93D8
S11301509F93AF93BF93EF93FF938091800090910F
S1130160810001969093810080938000CD97C9F41B
S113017080EF88BB81E00E94550080E80E94550012
S113018080E690E00E948D00109281001092800021
S11301902FEB86EC9DE2215080409040E1F700C0B7
S11301A00000FF91EF91BF91AF919F918F917F914B
S11301B06F915F914F913F912F910F900FBE0F90D0
S11301C01F9018958FEF84BB87BB0E94640083B790
S11301D0856083BF89B7816089BF109281001092C6
S11301E080007894CFE0C8BB81E00E94550080E88D
S11301F00E94550082E790E00E948D002FE38DE07D
S113020093E0215080409040E1F700C00000EBCF24
S1070210F894FFCF8C
S1130214496E746572727570742072756E6E696E4F
S113022467004D61696E2070726F6772616D0000C2
S9030000FC
