:100000000C942A000C9434000C9434000C943400AA
:100010000C9434000C9434000C9434000C94340090
:100020000C9434000C9434000C9434000C94340080
:100030000C9434000C9434000C9434000C94340070
:100040000C9434000C9434000C9434000C94340060
:100050000C94340011241FBECFE5D4E0DEBFCDBF29
:100060000E9456010C948F030C94000085BBA89845
:10007000A998AA9A89EF90E00197F1F700C00000D3
:10008000AA980895CF93C82F807F90E00E943600F1
:1000900020E1C29FC001112499270E943600CF9110
:1000A000089582E090E00E94420088E290E00E9481
:1000B000420086E090E00E9442008CE090E00E94C6
:1000C0004200089585BBA89AA998AA9A89EF90E062
:1000D0000197F1F700C00000AA980895CF93C82FA8
:1000E000807F0E9462008C2F8295807F0E94620038
:1000F000CF910895EF92FF920F931F93CF93DF93C9
:10010000CDB7DEB764970FB6F894DEBF0FBECDBF94
:10011000AC01009709F43DC0FE013196E12CF12CB1
:100120009A01ADECBCEC0E946F039695879596956D
:10013000879596958795BC01660F771F9C01220FC6
:10014000331F220F331F220F331F260F371F421B6F
:10015000530B41935193AC018FEFE81AF80A411504
:100160005105F1F68701015011099AF0EE0CFF1CC0
:10017000E1E0F0E0EC0FFD1FEE0EFF1EF2E0EF1AE3
:10018000F108F7018081805D0E946E000150110925
:10019000A8F764960FB6F894DEBF0FBECDBFDF910F
:1001A000CF911F910F91FF90EF9008958EE09DE009
:1001B0002BE037E082BBE1EEF4E03197F1F700C0CD
:1001C0000000C89904C0C89BFECF8FE20895C9996A
:1001D00004C0C99BFECF8AE20895CA9904C0CA9B95
:1001E000FECF8DE20895CB9904C0CB9BFECF8BE26E
:1001F000089592BBE1EEF4E03197F1F700C0000002
:10020000C89904C0C89BFECF89E30895C99904C06A
:10021000C99BFECF86E30895CA9904C0CA9BFECF4E
:1002200083E30895CB9904C0CB9BFECF8DE3089563
:1002300022BBE1EEF4E03197F1F700C00000C8996D
:1002400004C0C89BFECF88E30895C99904C0C99B28
:10025000FECF85E30895CA9904C0CA9BFECF82E30E
:100260000895CB9904C0CB9BFECF80E3089532BBA9
:10027000E1EEF4E03197F1F700C00000C89904C046
:10028000C89BFECF87E30895C99904C0C99BFECFE0
:1002900084E30895CA9904C0CA9BFECF81E3089500
:1002A000CB9988CFCB9BFECF80E20895CF93DF938D
:1002B000CDB7DEB72F970FB6F894DEBF0FBECDBF18
:1002C0001FEF14BB1ABA11BB0E9451001BBB12BA1C
:1002D0000E94D6000E946E0081E00E94420080E8E9
:1002E0000E94420024E22B87412C512CCE01019622
:1002F0009D878C874E865F869B85903231F481E0A6
:100300000E94420080E80E9442000E94D600182FFE
:100310008B3209F4BCC08D3209F4BCC08A3209F4B6
:10032000BCC08F3209F4BCC08D3309F4BCC080322C
:1003300019F3EE24E394F12CEC0EFD1E6201689497
:10034000222422F8312C0F2EF3E06F2E712CF02D89
:100350006894882481F8912CAA24A394B12C812F2D
:100360000E946E00113321F4F701B182A0823FC0D8
:10037000123321F4F7019182808239C0133321F4C2
:10038000F7017182608233C0143321F4F7013182A6
:1003900020822DC0153331F485E090E0F701918380
:1003A000808325C0163331F486E090E0F701918315
:1003B00080831DC0173331F487E090E0F70191830B
:1003C000808315C0183331F488E090E0F701918301
:1003D00080830DC0193331F489E090E0F7019183F7
:1003E000808305C0103319F4F70111821082FFEFEA
:1003F000CF1ADF0A0E94D600182F8B3209F436C1BB
:100400008D3209F433C18A3209F430C18F3209F4D4
:100410002DC18D3309F42AC122E0E20EF11C803295
:1004200009F09DCF23C13297DF0180819181892B13
:1004300009F116161706D4F4F08001812E853F8548
:100440008F2D902F880F991F8C01000F111F000F07
:10045000111F800F911FF82E092F2F5F3F4F261776
:10046000370771F78C9311969C9311978D919C91FE
:10047000A80EB91E6F5F7F4FE417F507A1F61E2D7A
:1004800001C05201103209F437CF012F0EC0082FDE
:1004900052010BC0082F520108C0082F520105C09D
:1004A000082F520102C0082F5201812F0E946E00B6
:1004B0000E94D600182F8D3309F49FC0803209F4B2
:1004C0001BCFEE24E394F12CEC0EFD1E6201689428
:1004D000882482F8912C6894662461F8712C222477
:1004E0002394312C812F0E946E00113321F4F701E7
:1004F000318220820EC0123321F4F70171826082B2
:100500000EC0133331F483E090E0F70191838083D0
:100510000EC0143321F4F7019182808210C015338C
:1005200031F485E090E0F7019183808310C01633A9
:1005300031F486E090E0F7019183808310C0173397
:1005400031F487E090E0F7019183808310C0183385
:1005500031F488E090E0F701918380830DC0193376
:1005600031F489E090E0F7019183808305C0103376
:1005700019F4F70111821082FFEFCF1ADF0A0E94EF
:10058000D600182F8D3309F484C022E0E20EF11C4E
:10059000803209F0A7CF7DC03297DF018081918141
:1005A000892B09F116161706D4F4C080D1802E8548
:1005B0003F858C2D9D2D880F991F6C01CC0CDD1C67
:1005C000CC0CDD1C8C0D9D1DC82ED92E2F5F3F4FEE
:1005D0002617370771F78C9311969C9311978D917D
:1005E0009C91E80EF91E6F5F7F4FE417F507A1F6A7
:1005F00001C07201103211F47FCE720180EC0E94B2
:100600004200812F0E946E000B3231F4C5018E0D25
:100610009F1D0E947A001DC00D3231F4C5018E1954
:100620009F090E947A0015C00A3251F4AE9CC001A5
:10063000AF9C900DBE9C900D11240E947A0009C0C1
:100640000F3239F4C501B7010E945B03CB010E9450
:100650007A008FE39DE0E3E081509040E040E1F7D5
:1006600000C000000E94D6008B8746CE1C141D04DB
:100670000CF007CFF601EE0FFF1F81E090E08C0F2A
:100680009D1FE80FF91F5201B201E12E4C855D85D7
:10069000CACE1C141D040CF0ACCFF601EE0FFF1FE8
:1006A00081E090E08C0F9D1FE80FF91F7201B201ED
:1006B0004C855D8571CF97FB072E16F4009407D00B
:1006C00077FD09D00E947B0307FC05D03EF490958E
:1006D00081959F4F0895709561957F4F0895A29FD2
:1006E000B001B39FC001A39F01D0B29F700D811DC7
:1006F0001124911D0895AA1BBB1B51E107C0AA1F1D
:10070000BB1FA617B70710F0A61BB70B881F991FB2
:100710005A95A9F780959095BC01CD010895F8945C
:02072000FFCF09
:00000001FF
