:100000000C942A000C9434000C9434000C943400AA
:100010000C9434000C9434000C9434000C94340090
:100020000C9434000C9434000C9434000C94340080
:100030000C9434000C9434000C9434000C94340070
:100040000C9434000C9434000C9434000C94340060
:100050000C94340011241FBECFE5D4E0DEBFCDBF29
:100060000E9487000C9498000C94000085BBA8980F
:10007000A998AA9A8FE39CE90197F1F700C00000C4
:10008000AA980895CF93C82F807F90E00E943600F1
:1000900020E1C29FC001112499270E943600CF9110
:1000A000089582E090E00E94420088E290E00E9481
:1000B000420086E090E00E9442008CE090E00E94C6
:1000C0004200089585BBA89AA998AA9A8FE39CE953
:1000D0000197F1F700C00000AA980895CF93C82FA8
:1000E000807F0E9462008C2F8295807F0E94620038
:1000F000CF91089584E089B98DE080BD86E880BD08
:1001000088E18AB908955F9BFECF8CB108958FEF87
:1001100084BB0E9451000E947A0081E00E9442004C
:1001200080E80E9442000E9483000E946E00FBCF84
:04013000F894FFCF71
:00000001FF
