:100000000C942A000C9434000C9434000C943400AA
:100010000C9434000C9434000C9434000C94340090
:100020000C9434000C9434000C9434000C94340080
:100030000C9434000C9434000C9434000C94340070
:100040000C9434000C9434000C9434000C94340060
:100050000C94340011241FBECFE5D4E0DEBFCDBF29
:100060000E9443000C945D000C94000084E089B968
:100070008DE080BD86E880BD88E18AB908955F9BE8
:10008000FECF8CB108958FEF87BB0E94360019E038
:10009000DAE0C6E005E00E943F00873711F418BBA4
:1000A00008C0833711F4C8BBF6CF813611F4D8BB32
:0E00B000F2CF843681F708BBEECFF894FFCF75
:00000001FF
