S024000050726163746963616C2032382D206B65797061642B524742204C45442E737265631D
S11300000C942A000C9434000C9434000C943400A6
S11300100C9434000C9434000C9434000C9434008C
S11300200C9434000C9434000C9434000C9434007C
S11300300C9434000C9434000C9434000C9434006C
S11300400C9434000C9434000C9434000C9434005C
S11300500C94340011241FBECFE5D4E0DEBFCDBF25
S11300600E94B6000C94F7000C9400008EE09DE012
S11300702BE037E082BBE1EEF4E03197F1F700C00A
S11300800000C89904C0C89BFECF8FE20895C999A7
S113009004C0C99BFECF88E50895CA9904C0CA9BD1
S11300A0FECF8DE20895CB9904C0CB9BFECF8BE2AB
S11300B0089592BBE1EEF4E03197F1F700C000003F
S11300C0C89904C0C89BFECF89E30895C99904C0A8
S11300D0C99BFECF86E30895CA9904C0CA9BFECF8C
S11300E083E30895CB9904C0CB9BFECF8DE30895A1
S11300F022BBE1EEF4E03197F1F700C00000C899AB
S113010004C0C89BFECF88E30895C99904C0C99B65
S1130110FECF85E30895CA9904C0CA9BFECF82E34B
S11301200895CB9904C0CB9BFECF80E3089532BBE6
S1130130E1EEF4E03197F1F700C00000C89904C083
S1130140C89BFECF87E30895C99904C0C99BFECF1D
S113015084E30895CA9904C0CA9BFECF81E308953D
S1130160CB9988CFCB9BFECF83E408958FEF87BBD9
S11301701ABA81BB8BBB12BA0F2EF7E0DF2EF02D1B
S11301800F2EF6E0EF2EF02D0F2EF5E0FF2EF02DC2
S113019004E013E0D2E0C1E00E943600803311F4A1
S11301A018BA08C0813311F4C8BB08C0823311F4F3
S11301B0D8BB08C0833311F418BB08C0843311F4CE
S11301C008BB08C0853311F4F8BA07C0863311F4AC
S11301D0E8BA03C0873309F4D8BA2FE38DE093E07B
S11301E0215080409040E1F700C00000D5CFF89442
S10501F0FFCF3B
S9030000FC
