:100000000C942A000C9434000C9434000C943400AA
:100010000C9434000C9434000C9434000C94340090
:100020000C9434000C9434000C9434000C94340080
:100030000C9434000C9434000C9434000C94340070
:100040000C9434000C9434000C9434000C94340060
:100050000C94340011241FBECFE5D4E0DEBFCDBF29
:100060000E943C000C9463000C94000083B78966E6
:1000700083BF88E087BB08950E94360080E090E04F
:100080002FEF30E040E050E00BC08CBF6FEF76E721
:10009000E1E061507040E040E1F700C000000196EF
:1000A0008F3F910591F38CF3C9018CBF6FEF76E719
:1000B000E1E061507040E040E1F700C000000197CE
:0A00C000A0F7CA01EDCFF894FFCFBE
:00000001FF
