:100000000C942A000C9434000C9434000C943400AA
:100010000C9434000C9434000C9434000C94340090
:100020000C9434000C9434000C9434000C94340080
:100030000C9434000C9434000C9434000C94340070
:100040000C9434000C9434000C9434000C94340060
:100050000C94340011241FBECFE5D4E0DEBFCDBF29
:100060000E94B2000C94DC000C94000085BBA898A0
:10007000A998AA9A8FE39CE90197F1F700C00000C4
:10008000AA980895CF93C82F807F90E00E943600F1
:1000900020E1C29FC001112499270E943600CF9110
:1000A000089582E090E00E94420088E290E00E9481
:1000B000420086E090E00E9442008CE090E00E94C6
:1000C0004200089585BBA89AA998AA9A8FE99FE053
:1000D0000197F1F700C00000AA980895CF93C82FA8
:1000E000807F0E9462008C2F8295807F0E94620038
:1000F000CF91089580E40E9442008EE00E946E003D
:100100008FE10E946E008FE10E946E008FE10E94DD
:100110006E0084E00E946E0088E00E946E0088E11C
:100120000E946E0080E00E946E00089588E40E94A4
:1001300042008EE00E946E008FE10E946E008FE10F
:100140000E946E008FE10E946E0084E00E946E00AB
:1001500082E00E946E0083E00E946E0080E00E94B8
:100160006E0008958FEF84BB0E94510080E80E94CA
:1001700042000E947A000E94960080E80E9442009D
:1001800080E00E946E002FEF80E792E021508040D7
:100190009040E1F700C0000080E80E94420081E04A
:1001A0000E946E002FEF80E792E021508040904047
:0C01B000E1F700C00000E1CFF894FFCFA1
:00000001FF
