S00D00004C445220322E73726563E3
S11300000C942A000C943F000C943F000C943F0085
S11300100C943F000C943F000C943F000C943F0060
S11300200C943F000C943F000C943F000C943F0050
S11300300C943F000C943F000C943F000C943F0040
S11300400C943F000C943F000C943F000C943F0030
S11300500C943F0011241FBECFE5D4E0DEBFCDBF1A
S113006010E0A0E6B0E0E8EBF2E002C005900D92EB
S1130070AA38B107D9F70E94A6000C945A010C942F
S1130080000085BBA898A998AA9A8FE39CE90197D8
S1130090F1F700C00000AA980895CF93C82F807F7D
S11300A090E00E94410020E1C29FC00111249927E1
S11300B00E944100CF91089582E090E00E944D009B
S11300C088E290E00E944D0086E090E00E944D009E
S11300D08CE090E00E944D00089585BBA89AA998F1
S11300E0AA9A8FE39CE90197F1F700C00000AA984F
S11300F00895CF93C82F807F0E946D008C2F829526
S1130100807F0E946D00CF910895CF93DF93EC011F
S11301108881882331F021960E9479008991811188
S1130120FBCFDF91CF91089580E487B987E886B942
S1130130089597B18770982B97B9369A349BFECF60
S1130140349A24B135B1822F932F08951ABA8FEFC0
S113015084BB0E945C000E94940080E30E9499008A
S1130160EC01853B910598F481E00E944D0080E804
S11301700E944D0080E690E00E9485002FEF83ED01
S113018090E3215080409040E1F700C00000CE0190
S1130190855B91098C38910598F481E00E944D00AB
S11301A080E80E944D0086E690E00E9485002FEFD3
S11301B083ED90E3215080409040E1F700C00000BF
S11301C0CE01815491408035910598F481E00E94DC
S11301D04D0080E80E944D008BE690E00E9485006F
S11301E02FEF83ED90E3215080409040E1F700C071
S11301F00000CE01815991408436910598F481E044
S11302000E944D0080E80E944D008FE690E00E941D
S113021085002FEF83ED90E3215080409040E1F77B
S113022000C00000CE01855F9140C29798F481E040
S11302300E944D0080E80E944D0085E790E00E94F6
S113024085002FEF83ED90E3215080409040E1F74B
S113025000C00000CE0187529240C29798F481E01A
S11302600E944D0080E80E944D008CE790E00E94BF
S113027085002FEF83ED90E3215080409040E1F71B
S113028000C00000C935D24008F467CF81E00E9465
S11302904D0080E80E944D0083E890E00E948500B4
S11302A08FEF93ED20E3815090402040E1F700C0B0
S10B02B0000053CFF894FFCFC6
S11302B8424C41434B00424C55450052454400478B
S11302C85245454E004F52414E47450059454C4C06
S10D02D84F570057484954450000F1
S9030000FC
