:100000000C942A000C9434000C9434000C943400AA
:100010000C9434000C9434000C9434000C94340090
:100020000C9434000C9434000C9434000C94340080
:100030000C9434000C9434000C9434000C94340070
:100040000C9434000C9434000C9434000C94340060
:100050000C94340011241FBECFE5D4E0DEBFCDBF29
:100060000E9436000C944D000C9400008FEF84BB6E
:1000700081BB2FEF9EE781E822BB95BBE3EDF0E368
:100080003197F1F700C0000082BB15BAE7EAF1E64C
:0E0090003197F1F700C00000EFCFF894FFCFDA
:00000001FF
