:100000000C942A000C9434000C9434000C943400AA
:100010000C9434000C9434000C9434000C94340090
:100020000C9434000C9434000C9434000C94340080
:100030000C9434000C9434000C9434000C94340070
:100040000C9434000C9434000C9434000C94340060
:100050000C94340011241FBECFE5D4E0DEBFCDBF29
:100060000E9436000C9444000C9400001ABA8FEFE2
:1000700087BB99E02AE089B3823009F498BB89B341
:0C0080008111F9CF28BBF7CFF894FFCF17
:00000001FF
