:100000000C942A000C9494000C943F000C943F0034
:100010000C943F000C943F000C943F000C943F0064
:100020000C943F000C943F000C943F000C943F0054
:100030000C943F000C943F000C943F000C943F0044
:100040000C943F000C943F000C943F000C943F0034
:100050000C943F0011241FBECFE5D4E0DEBFCDBF1E
:1000600010E0A0E6B0E0EEEDF1E002C005900D92E8
:10007000A038B107D9F70E94CB000C94ED000C9486
:10008000000085BBA898A998AA9A83EC99E00197EB
:10009000F1F700C00000AA980895CF93C82F807F81
:1000A00090E00E94410020E1C29FC00111249927E5
:1000B0000E944100CF91089582E090E00E944D009F
:1000C00088E290E00E944D0086E090E00E944D00A2
:1000D0008CE090E00E944D00089585BBA89AA998F5
:1000E000AA9A83EC99E00197F1F700C00000AA9862
:1000F0000895CF93C82F807F0E946D008C2F82952A
:10010000807F0E946D00CF910895CF93DF93EC0123
:100110008881882331F021960E947900899181118C
:10012000FBCFDF91CF9108951F920F920FB60F92E0
:1001300011242F933F934F935F936F937F938F93EC
:100140009F93AF93BF93EF93FF9380EF88BB2FE311
:100150008DE093E0215080409040E1F700C0000026
:1001600081E00E944D0080E80E944D0080E690E012
:100170000E948500FF91EF91BF91AF919F918F9168
:100180007F916F915F914F913F912F910F900FBE93
:100190000F901F9018958FEF84BB87BB0E945C0067
:1001A00084E082BB789415BE14BE80E48BBFCFE0A0
:1001B000C8BB81E00E944D0080E80E944D0082E7AC
:1001C00090E00E9485002FE38DE093E02150804075
:0E01D0009040E1F700C00000EBCFF894FFCFA5
:1001DE00496E746572727570742072756E6E696E8A
:1001EE0067004D61696E2070726F6772616D0000FD
:00000001FF
