S00F000052454C415920312E7372656347
S11300000C942A000C9434000C9434000C943400A6
S11300100C9434000C9434000C9434000C9434008C
S11300200C9434000C9434000C9434000C9434007C
S11300300C9434000C9434000C9434000C9434006C
S11300400C9434000C9434000C9434000C9434005C
S11300500C94340011241FBECFE5D4E0DEBFCDBF25
S11300600E9436000C944E000C9400008FEF81BB6C
S113007082E082BB2FEF33ED90E32150304090407B
S1130080E1F700C0000012BA2FEF33ED90E32150E6
S113009030409040E1F700C00000EBCFF894FFCF70
S9030000FC
