:100000000C942A000C943F000C943F000C943F0089
:100010000C943F000C943F000C943F000C943F0064
:100020000C943F000C943F000C943F000C943F0054
:100030000C943F000C943F000C943F000C943F0044
:100040000C943F000C943F000C943F000C943F0034
:100050000C943F0011241FBECFE5D4E0DEBFCDBF1E
:1000600010E0A0E6B0E0E6E6F1E002C005900D92F7
:10007000AA36B107D9F70E9494000C94B1000C94F1
:10008000000085BBA898A998AA9A8FE39CE90197DC
:10009000F1F700C00000AA980895CF93C82F807F81
:1000A00090E00E94410020E1C29FC00111249927E5
:1000B0000E944100CF91089582E090E00E944D009F
:1000C00088E290E00E944D0086E090E00E944D00A2
:1000D0008CE090E00E944D00089585BBA89AA998F5
:1000E000AA9A8FE99FE00197F1F700C00000AA9853
:1000F0000895CF93C82F807F0E946D008C2F82952A
:10010000807F0E946D00CF910895CF93DF93EC0123
:100110008881882331F021960E947900899181118C
:10012000FBCFDF91CF9108958FEF84BB0E945C00DD
:1001300008E010E080E80E944D0080E690E00E9418
:100140008500E8018EE10E944D002FEF81EE94E0E2
:10015000215080409040E1F700C00000219791F7C6
:06016000E9CFF894FFCF87
:0A0166006933696E64697961000075
:00000001FF
