:100000000C942A000C943F000C943F000C943F0089
:100010000C943F000C943F000C943F000C943F0064
:100020000C943F000C943F000C943F000C943F0054
:100030000C943F000C943F000C943F000C943F0044
:100040000C943F000C943F000C943F000C943F0034
:100050000C943F0011241FBECFE5D4E0DEBFCDBF1E
:1000600010E0A0E6B0E0ECE6F2E002C005900D92F0
:10007000A037B107D9F70E94F0000C9434010C941A
:10008000000085BBA898A998AA9A8FE39CE90197DC
:10009000F1F700C00000AA980895CF93C82F807F81
:1000A00090E00E94410020E1C29FC00111249927E5
:1000B0000E944100CF91089582E090E00E944D009F
:1000C00088E290E00E944D0086E090E00E944D00A2
:1000D0008CE090E00E944D00089585BBA89AA998F5
:1000E000AA9A8FE39CE90197F1F700C00000AA9853
:1000F0000895CF93C82F807F0E946D008C2F82952A
:10010000807F0E946D00CF910895EF92FF920F9330
:100110001F93CF93DF93CDB7DEB764970FB6F894F4
:10012000DEBF0FBECDBFAC01009709F43DC0FE019C
:100130003196E12CF12C9A01ADECBCEC0E94280127
:10014000969587959695879596958795BC01660FA8
:10015000771F9C01220F331F220F331F220F331FE3
:10016000260F371F421B530B41935193AC018FEF66
:10017000E81AF80A41155105F1F6870101501109F5
:100180009AF0EE0CFF1CE1E0F0E0EC0FFD1FEE0E2C
:10019000FF1EF2E0EF1AF108F7018081805D0E94F6
:1001A000790001501109A8F764960FB6F894DEBFE4
:1001B0000FBECDBFDF91CF911F910F91FF90EF90B8
:1001C0000895CF93DF93EC018881882331F0219645
:1001D0000E94790089918111FBCFDF91CF91089521
:1001E0001ABA8FEF84BB0E945C0080E80E944D0029
:1001F00080E690E00E94E10080EC0E944D0080E3E8
:100200000E94790000E010E0C0E0D0E089B38130C6
:1002100009F4219689B3823011F40F5F1F4F81E0FA
:100220000E944D0080E690E00E94E10080EC0E9478
:100230004D00CE01801B910B0E9485002FEF83ECB7
:1002400099E0215080409040E1F700C00000DECFEF
:10025000A29FB001B39FC001A39F01D0B29F700DB8
:0C026000811D1124911D0895F894FFCF1A
:10026C0056697369746F7220436F756E7465720092
:00000001FF
