S02B000050726F6A6563742031322D2070617373776F726420636F6E74726F6C6C6564206170702E7372656328
S11300000C942A000C943F000C943F000C943F0085
S11300100C943F000C943F000C943F000C943F0060
S11300200C943F000C943F000C943F000C943F0050
S11300300C943F000C943F000C943F000C943F0040
S11300400C943F000C943F000C943F000C943F0030
S11300500C943F0011241FBECFE5D4E0DEBFCDBF1A
S113006010E0A0E6B0E0EAE4F3E002C005900D92EF
S1130070A239B107D9F70E9414010C94A3010C947E
S1130080000085BBA898A998AA9A83EC99E00197E7
S1130090F1F700C00000AA980895CF93C82F807F7D
S11300A090E00E94410020E1C29FC00111249927E1
S11300B00E944100CF91089582E090E00E944D009B
S11300C088E290E00E944D0086E090E00E944D009E
S11300D08CE090E00E944D00089585BBA89AA998F1
S11300E0AA9A83EC99E00197F1F700C00000AA985E
S11300F00895CF93C82F807F0E946D008C2F829526
S1130100807F0E946D00CF910895CF93DF93EC011F
S11301108881882331F021960E9479008991811188
S1130120FBCFDF91CF9108958EE09DE02BE037E087
S113013082BBE1EEF4E03197F1F700C00000C8990A
S113014004C0C89BFECF8FE20895C99904C0C99B1F
S1130150FECF88E50895CA9904C0CA9BFECF8DE2FC
S11301600895CB9904C0CB9BFECF8BE2089592BB3C
S1130170E1EEF4E03197F1F700C00000C89904C043
S1130180C89BFECF89E30895C99904C0C99BFECFDB
S113019086E30895CA9904C0CA9BFECF83E30895F9
S11301A0CB9904C0CB9BFECF8DE3089522BBE1EE37
S11301B0F4E03197F1F700C00000C89904C0C89B6F
S11301C0FECF88E30895C99904C0C99BFECF85E397
S11301D00895CA9904C0CA9BFECF82E30895CB99BF
S11301E004C0CB9BFECF80E3089532BBE1EEF4E084
S11301F03197F1F700C00000C89904C0C89BFECF36
S113020087E30895C99904C0C99BFECF84E3089588
S1130210CA9904C0CA9BFECF81E30895CB9988CFC5
S1130220CB9BFECF83E408959F92AF92BF92CF926F
S1130230DF92EF92FF920F931F93CF93DF9300D03F
S113024000D0CDB7DEB71ABA8FEF81BB8BBB12BA21
S113025084BB0E945C00909063007E0125E0E20E66
S1130260F11CCC24C394D12CA12CB12C81E00E948C
S11302704D0080E80E944D0085E690E00E948500D4
S113028080EC0E944D008E010F5F1F4F0E9494006E
S1130290F80181938F018AE20E947900FFE32DE047
S11302A083E0F15020408040E1F700C000000E15CB
S11302B01F0561F79C2D8D2D2C81291102C09A2DCB
S11302C08B2D092F182F01151105A1F481E00E942F
S11302D04D0080E80E944D0084E790E00E94850074
S11302E09FEFE8E0FDE39150E040F040E1F700C00B
S11302F0000017C081E00E944D0080E80E944D007C
S113030083E890E00E9485002FEF88E09DE3215070
S113031080409040E1F700C000000130110509F46D
S1130320A5CF80E090E00F900F900F900F90DF9199
S1130330CF911F910F91FF90EF90DF90CF90BF90DE
S10D0340AF909F900895F894FFCF4A
S113034A3132333400456E74657220706173737789
S113035A6F726400416363657373204772616E74DC
S113036A6564004163636573732044656E696564FB
S105037A00007D
S9030000FC
