S01D000050726F6A65637420392D2073746F702077617463682E737265638D
S11300000C942A000C943F000C943F000C943F0085
S11300100C943F000C943F000C943F000C943F0060
S11300200C943F000C943F000C943F000C943F0050
S11300300C943F000C943F000C943F000C943F0040
S11300400C943F000C943F000C943F000C943F0030
S11300500C943F0011241FBECFE5D4E0DEBFCDBF1A
S113006010E0A0E6B0E0ECE5F3E002C005900D92EC
S1130070A636B107D9F70E9416010C94AC010C9472
S1130080000085BBA898A998AA9A83EC99E00197E7
S1130090F1F700C00000AA980895CF93C82F807F7D
S11300A090E00E94410020E1C29FC00111249927E1
S11300B00E944100CF91089582E090E00E944D009B
S11300C088E290E00E944D0086E090E00E944D009E
S11300D08CE090E00E944D00089585BBA89AA998F1
S11300E0AA9A89EF90E00197F1F700C00000AA985E
S11300F00895CF93C82F807F0E946D008C2F829526
S1130100807F0E946D00CF910895CF93DF93EC011F
S11301108881882331F021960E9479008991811188
S1130120FBCFDF91CF9108958EE082BB81EE94E006
S11301300197F1F700C00000C89904C0C89BFECF26
S11301408FE20895C99904C0C99BFECF88E508953C
S1130150CA9904C0CA9BFECF8DE20895CB9904C00E
S1130160CB9BFECF8BE208958DE082BB81EE94E0C1
S11301700197F1F700C00000C89904C0C89BFECFE6
S113018089E30895C99904C0C99BFECF86E3089505
S1130190CA9904C0CA9BFECF83E30895CB9904C0D7
S11301A0CB9BFECF8DE308958BE082BB81EE94E080
S11301B00197F1F700C00000C89904C0C89BFECFA6
S11301C088E30895C99904C0C99BFECF85E30895C7
S11301D0CA9904C0CA9BFECF82E30895CB9904C098
S11301E0CB9BFECF80E3089587E082BB81EE94E051
S11301F00197F1F700C00000C89904C0C89BFECF66
S113020087E30895C99904C0C99BFECF84E3089588
S1130210CA9904C0CA9BFECF81E30895CB9904C058
S1130220CB9BFECF83E4089580E008951ABACFEF04
S1130230C1BBC4BB0E945C00CBBB12BA86E80E945F
S11302404D0080E690E00E9485000E949400B82E44
S1130250E12CF12CC12CD12C8C2C9D2C29E3B21235
S113026008C086E80E944D0080E690E00E94850068
S11302705AC088E3B81257C040C00F5F1F4FC82D43
S1130280D92D0F2EF0E3AF2EF02DAE0C8AE80E948C
S11302904D008C2F805D0E94790089E80E944D00FA
S11302A08A2D0E94790088E80E944D008AE30E940A
S11302B079008FEF98E02DE3815090402040E1F7E2
S11302C000C000000E949400B82E811107C0C930FC
S11302D0D10538F0C930D10521F407C088E3B81638
S11302E089F12196CA30D10589F606301105F9F055
S11302F0780104C0082D192D01C0860106301105AE
S113030008F4BBCF9FE926E881E09150204080406B
S1130310E1F700C0000087E80E944D0081E30E94DD
S11303207900BB2039F30E949400B82E97CF9FE93F
S113033026E881E0915020408040E1F700C00000B1
S1130340E82CE9CF9FE926E881E0915020408040E5
S10F0350E1F700C00000E7CFF894FFCFF5
S109035C30303A3030009D
S9030000FC
