:100000000C942A000C94FF000C9447000C944700B9
:100010000C9447000C9447000C9447000C94470044
:100020000C9447000C9447000C9447000C94470034
:100030000C9447000C9447000C9447000C94470024
:100040000C9447000C9447000C9447000C94470014
:100050000C94470011241FBECFE5D4E0DEBFCDBF16
:1000600010E0A0E6B0E0EAE2F4E002C005900D92F4
:10007000AA36B107D9F720E0AAE6B0E001C01D9288
:10008000AA37B207E1F70E94F4010C9413020C9412
:10009000000088EE8CBF89E083BF82E089BF0895AD
:1000A00085BBA898A998AA9A8FE39CE90197F1F7D4
:1000B00000C00000AA980895CF93C82F807F90E0D9
:1000C0000E94500020E1C29FC001112499270E9484
:1000D0005000CF91089582E090E00E945C0088E299
:1000E00090E00E945C0086E090E00E945C008CE062
:1000F00090E00E945C00089585BBA89AA998AA9AEE
:100100008FE99FE00197F1F700C00000AA980895D9
:10011000CF93C82F807F0E947C008C2F8295807F98
:100120000E947C00CF910895CF93DF93EC018881EA
:10013000882331F021960E94880089918111FBCF9C
:10014000DF91CF910895EF92FF920F931F93CF937A
:10015000DF93CDB7DEB764970FB6F894DEBF0FBE5E
:10016000CDBFAC01009709F43DC0FE013196E12CF2
:10017000F12C9A01ADECBCEC0E9407029695879594
:100180009695879596958795BC01660F771F9C017C
:10019000220F331F220F331F220F331F260F371F4B
:1001A000421B530B41935193AC018FEFE81AF80AAD
:1001B00041155105F1F68701015011099AF0EE0C35
:1001C000FF1CE1E0F0E0EC0FFD1FEE0EFF1EF2E081
:1001D000EF1AF108F7018081805D0E9488000150CC
:1001E0001109A8F764960FB6F894DEBF0FBECDBF15
:1001F000DF91CF911F910F91FF90EF9008951F9283
:100200000F920FB60F9211242F933F934F935F934A
:100210006F937F938F939F93AF93BF93EF93FF93CE
:1002200080917000909171008A3091050CF0CBC0E4
:100230009093790080937800019690937100809359
:1002400070008AE890E00E945C00809178009091B4
:100250007900C0960E94880089E890E00E945C00C6
:100260008091740090917500C0960E94880088E883
:1002700090E00E945C008AE390E00E9488002FEFEB
:1002800083ED90E3215080409040E1F700C00000F2
:1002900080917000909171000A975CF180916E00DE
:1002A00090916F00853091050CF089C00196909374
:1002B0006F0080936E00909375008093740010928D
:1002C00071001092700015C010926F0010926E00B5
:1002D00010927500109274001092710010927000CC
:1002E00080916C0090916D00019690936D008093C9
:1002F0006C0080916C0090916D00909377008093DA
:1003000076008A30910564F487E890E00E945C00F2
:100310008091760090917700C0960E9488001AC064
:10032000CC975CF486E890E00E945C0080917600B7
:10033000909177000E94A3000DC010927700109258
:10034000760080916A0090916B00019690936B000B
:1003500080936A0080916A0090916B009093730083
:10036000809372008A30910564F484E890E00E94E2
:100370005C008091720090917300C0960E9488008A
:1003800022C049975CF483E890E00E945C00809171
:100390007200909173000E94A30015C0109271002A
:1003A0001092700010926F0010926E0010926D000B
:1003B00010926C0010926B0010926A0004C00597B6
:1003C00009F097CF81CFFF91EF91BF91AF919F91AE
:1003D0008F917F916F915F914F913F912F910F90EE
:1003E0000FBE0F901F9018958FEF84BB0E946B007B
:1003F00083E80E945C0080E690E00E9494000E94E6
:100400004900789415BE14BE80E48BBFFFCFA29F35
:10041000B001B39FC001A39F01D0B29F700D811D99
:0A0420001124911D0895F894FFCFF8
:0A042A0030303A30303A3030000034
:00000001FF
