:100000000C942A000C9434000C9434000C943400AA
:100010000C9434000C9434000C9434000C94340090
:100020000C9434000C9434000C9434000C94340080
:100030000C9434000C9434000C9434000C94340070
:100040000C9434000C9434000C9434000C94340060
:100050000C94340011241FBECFE5D4E0DEBFCDBF29
:100060000E94E2000C9416010C94000085BBA89835
:10007000A998AA9A8FE99FE00197F1F700C00000C4
:10008000AA980895CF93C82F807F90E00E943600F1
:1000900020E1C29FC001112499270E943600CF9110
:1000A000089582E090E00E94420088E290E00E9481
:1000B000420086E090E00E9442008CE090E00E94C6
:1000C000420008958EE09DE02BE037E082BBEFE137
:1000D000FEE43197F1F700C00000C89904C0C89B46
:1000E000FECF8FE20895C99904C0C99BFECF88E571
:1000F0000895CA9904C0CA9BFECF8DE20895CB999A
:1001000004C0CB9BFECF8BE2089592BBEFE1FEE4EF
:100110003197F1F700C00000C89904C0C89BFECF1A
:1001200089E30895C99904C0C99BFECF86E3089569
:10013000CA9904C0CA9BFECF83E30895CB9904C03B
:10014000CB9BFECF8DE3089522BBEFE1FEE4319718
:10015000F1F700C00000C89904C0C89BFECF88E337
:100160000895C99904C0C99BFECF85E30895CA9933
:1001700004C0CA9BFECF82E30895CB9904C0CB9BF9
:10018000FECF80E3089532BBEFE1FEE43197F1F753
:1001900000C00000C89904C0C89BFECF87E3089543
:1001A000C99904C0C99BFECF84E30895CA9904C0CD
:1001B000CA9BFECF81E30895CB9988CFCB9BFECF1E
:1001C00083E40895CFEFC4BBC7BB1ABAC1BB0E947A
:1001D0005100CBBB12BA18BAC9E01AE005E0D6E06C
:1001E0000E946200883311F4C8BBFACF823311F445
:1001F000D8BBF6CF843361F408BB2FEF83ED90E3D7
:10020000215080409040E1F700C00000C8BBE8CF1B
:10021000863331F718BB2FEF83ED90E321508040F8
:100220009040E1F700C00000C8BBDACFF894FFCFE0
:00000001FF
