S00C0000495220332E737265632A
S11300000C942A000C943F000C943F000C943F0085
S11300100C943F000C943F000C943F000C943F0060
S11300200C943F000C943F000C943F000C943F0050
S11300300C943F000C943F000C943F000C943F0040
S11300400C943F000C943F000C943F000C943F0030
S11300500C943F0011241FBECFE5D4E0DEBFCDBF1A
S113006010E0A0E6B0E0E8E7F1E002C005900D92F0
S1130070AC36B107D9F70E9494000C94BA000C94E2
S1130080000085BBA898A998AA9A8FE39CE90197D8
S1130090F1F700C00000AA980895CF93C82F807F7D
S11300A090E00E94410020E1C29FC00111249927E1
S11300B00E944100CF91089582E090E00E944D009B
S11300C088E290E00E944D0086E090E00E944D009E
S11300D08CE090E00E944D00089585BBA89AA998F1
S11300E0AA9A8FE39CE90197F1F700C00000AA984F
S11300F00895CF93C82F807F0E946D008C2F829526
S1130100807F0E946D00CF910895CF93DF93EC011F
S11301108881882331F021960E9479008991811188
S1130120FBCFDF91CF9108951ABA8FEF84BB0E9461
S11301305C0089B3813051F40E944D0080E80E9434
S11301404D0080E690E00E9485000AC081E00E9494
S11301504D0080E80E944D0086E690E00E948500F4
S11301602FEF89E698E1215080409040E1F700C0EC
S10B01700000DFCFF894FFCF7B
S10F0178626C61636B0077686974650059
S9030000FC
